ABDIRAHMANFill Actv(Trk)                30000501870294500001MCK00332-ARUNT -L        GJ00181332                    000000300R    DR  OP  ST  0   1   A    1D  26  06  F   5   02018072001727110201807200172955  CB072018
ABDIRAHMANFill Actv(Trk)                30000501870294500002MCK09321-ARU   -L        KF00021072                    000000100R    DR  OP  ST  0   1   A    1D  26  07  F   4   02018072001729550201807200173027  CB072018
ABDIRAHMANFill Actv(Trk)                30000501870294500003MCK09321-ARU   -XL       KF00021070                    000000100R    DR  OP  ST  0   1   A    1D  26  07  F   5   02018072001730270201807200173036  CB072018
ABDIRAHMANFill Actv(Trk)                30000501870294500004MCK09406-POL   -M        KF00021082                    000000100R    DR  OP  ST  0   1   A    1D  26  08  F   4   02018072001730360201807200173051  CB072018
ABDIRAHMANFill Actv(Trk)                30000501870294500005BCB01824-BL    -46B      AF00096096                    000000100R    DR  OP  ST  0   1   A    1D  26  10  C   3   02018072001730510201807200173113  CB072018
ABDIRAHMANFill Actv(Trk)                30000501870294500006MCO00013-LYN   -XL       GJ00181328                    000000100R    DR  OP  ST  0   1   A    1D  26  10  E   3   02018072001731130201807200173126  CB072018
ABDIRAHMANFill Actv(Trk)                30000501870294500007MCO00023-CDR   -M        KF00021086                    000000100R    DR  OP  ST  0   1   A    1D  26  12  E   3   02018072001731260201807200173142  CB072018
ABDIRAHMAN                              70001101870304900001        -      -                                       000000000                                                  02018072002004560201807200200456  CB072018
ABDIRAHMAN                              70001101870305400001        -      -                                       000000000                                                  02018072002005340201807200200534  CB072018
ABDIRAHMAN                              70001101870310200001        -      -                                       000000000                                                  02018072002159460201807200215946  CB072018
